S0260000737465707065725F6D6F746F725F64726976696E675F73657175656E63652E7372656361
S11300000C9434000C9449000C9449000C9449005D
S11300100C9449000C9449000C9449000C94490038
S11300200C9449000C9449000C9449000C94490028
S11300300C9449000C9449000C9449000C94490018
S11300400C9449000C9449000C9449000C94490008
S11300500C9449000C9449000C9449000C944900F8
S11300600C9449000C94490011241FBECFEFD8E032
S1130070DEBFCDBF11E0A0E0B1E0E4E0F1E002C0FA
S113008005900D92A830B107D9F70E944B000C944B
S113009080000C940000CF93DF93CDB7DEB7289790
S11300A00FB6F894DEBF0FBECDBF88E0E0E0F1E00C
S11300B0DE01119601900D928A95E1F78FE084B9E3
S11300C080E090E0FC01EE0FFF1F21E030E02C0FF8
S11300D03D1FE20FF31F208125B9019683709078AC
S11300E0992324F401978C6F9F6F01963FE34DE0B1
S11300F023E0315040402040E1F700C00000E2CF4F
S1070100F894FFCF9D
S10B01040100020004000800E0
S9030000FC
