S01600004C43445F313658325F382D6269742E73726563E8
S11300000C9434000C9449000C9449000C9449005D
S11300100C9449000C9449000C9449000C94490038
S11300200C9449000C9449000C9449000C94490028
S11300300C9449000C9449000C9449000C94490018
S11300400C9449000C9449000C9449000C94490008
S11300500C9449000C9449000C9449000C944900F8
S11300600C9449000C94490011241FBECFEFD8E032
S1130070DEBFCDBF11E0A0E0B1E0EEE7F1E002C0E9
S113008005900D92AE31B107D9F70E94AD000C94E2
S1130090BD000C9400008BB985B18E7F85B985B104
S11300A08D7F85B985B1846085B985E08A95F1F73E
S11300B0000085B18B7F85B98FED9EE20197F1F742
S11300C000C0000008958BB985B1816085B985B100
S11300D08D7F85B985B1846085B985E08A95F1F70E
S11300E0000085B18B7F85B98FE99FE00197F1F717
S11300F000C0000008958FEF84B98AB92FEF89EF0B
S113010090E0215080409040E1F700C0000088E377
S11301100E944B008CE00E944B0086E00E944B0042
S113012081E00E944B0080E80E944B0008950F93E9
S11301301F93CF93DF938C01C0E0D0E003C00E94F3
S113014063002196F801EC0FFD1F80818111F7CF28
S1130150DF91CF911F910F9108950E947B0080E061
S113016091E00E94970080EC0E944B008EE091E0A9
S11101700E94970080E090E00895F894FFCF7D
S113017E4D6F68616D65642041686D6564004D6105
S111018E686D6F7564204D656E617A61610065
S9030000FC
